{
  "_format": "hh-sol-artifact-1",
  "contractName": "YieldChallenge",
  "sourceName": "contracts/YieldChallenge.sol",
  "abi": [
    {
      "inputs": [
        {
          "internalType": "address",
          "name": "_token",
          "type": "address"
        },
        {
          "internalType": "address",
          "name": "_vault",
          "type": "address"
        },
        {
          "internalType": "address",
          "name": "_judge",
          "type": "address"
        },
        {
          "internalType": "address",
          "name": "_treasury",
          "type": "address"
        }
      ],
      "stateMutability": "nonpayable",
      "type": "constructor"
    },
    {
      "inputs": [
        {
          "internalType": "uint256",
          "name": "_amount",
          "type": "uint256"
        },
        {
          "internalType": "uint256",
          "name": "_deadline",
          "type": "uint256"
        }
      ],
      "name": "deposit",
      "outputs": [],
      "stateMutability": "nonpayable",
      "type": "function"
    },
    {
      "inputs": [
        {
          "internalType": "address",
          "name": "_user",
          "type": "address"
        },
        {
          "internalType": "bool",
          "name": "_status",
          "type": "bool"
        }
      ],
      "name": "submitResult",
      "outputs": [],
      "stateMutability": "nonpayable",
      "type": "function"
    },
    {
      "inputs": [],
      "name": "withdraw",
      "outputs": [],
      "stateMutability": "nonpayable",
      "type": "function"
    }
  ],
  "bytecode": "0x608060405234801561001057600080fd5b5060405161089838038061089883398101604081905261002f9161009e565b600080546001600160a01b039586166001600160a01b03199182161790915560018054948616948216949094179093556002805492851692841692909217909155600380549190931691161790556100f2565b80516001600160a01b038116811461009957600080fd5b919050565b600080600080608085870312156100b457600080fd5b6100bd85610082565b93506100cb60208601610082565b92506100d960408601610082565b91506100e760608601610082565b905092959194509250565b610797806101016000396000f3fe608060405234801561001057600080fd5b50600436106100415760003560e01c80633ccfd60b14610046578063af20ad3b14610050578063e2bbb15814610063575b600080fd5b61004e610076565b005b61004e61005e366004610698565b61031a565b61004e6100713660046106dd565b610400565b3360009081526004602052604090205442106100d95760405162461bcd60e51b815260206004820152601a60248201527f70617469656e63652c20646561646c696e65206e6f74206d657400000000000060448201526064015b60405180910390fd5b33600090815260046020818152604080842081516080810183528154815260018083015494820194909452600282015481840181905260039092015460ff161515606082015292549151632e1a7d4d60e01b8152938401529092916001600160a01b0390911690632e1a7d4d90602401602060405180830381600087803b15801561016357600080fd5b505af1158015610177573d6000803e3d6000fd5b505050506040513d601f19601f8201168201806040525081019061019b91906106ff565b90508160600151156102315760005460405163a9059cbb60e01b8152336004820152602481018390526001600160a01b039091169063a9059cbb906044015b602060405180830381600087803b1580156101f457600080fd5b505af1158015610208573d6000803e3d6000fd5b505050506040513d601f19601f8201168201806040525081019061022c9190610718565b505050565b600054602083015160405163a9059cbb60e01b815233600482015260248101919091526001600160a01b039091169063a9059cbb90604401602060405180830381600087803b15801561028357600080fd5b505af1158015610297573d6000803e3d6000fd5b505050506040513d601f19601f820116820180604052508101906102bb9190610718565b5060005460035460208401516001600160a01b039283169263a9059cbb9216906102e5908561073c565b6040516001600160e01b031960e085901b1681526001600160a01b03909216600483015260248201526044016101da565b5050565b6002546001600160a01b031633146103745760405162461bcd60e51b815260206004820152601860248201527f6f6e6c7920746865206a756467652063616e206a75646765000000000000000060448201526064016100d0565b6001600160a01b03821660009081526004602052604090205442116103d25760405162461bcd60e51b81526020600482015260146024820152733232b0b23634b732903737ba1036b2ba1039b2b960611b60448201526064016100d0565b6001600160a01b03919091166000908152600460205260409020600301805460ff1916911515919091179055565b600082116104475760405162461bcd60e51b81526020600482015260146024820152730616d6f756e742068617320746f206265203e20360641b60448201526064016100d0565b4281116104965760405162461bcd60e51b815260206004820181905260248201527f646561646c696e652068617320746f20626520696e207468652066757475726560448201526064016100d0565b6000546040516323b872dd60e01b8152336004820152306024820152604481018490526001600160a01b03909116906323b872dd90606401602060405180830381600087803b1580156104e857600080fd5b505af11580156104fc573d6000803e3d6000fd5b505050506040513d601f19601f820116820180604052508101906105209190610718565b156103165760005460015460405163095ea7b360e01b81526001600160a01b0391821660048201526024810185905291169063095ea7b390604401602060405180830381600087803b15801561057557600080fd5b505af1158015610589573d6000803e3d6000fd5b505050506040513d601f19601f820116820180604052508101906105ad9190610718565b5060015460405163b6b55f2560e01b8152600481018490526000916001600160a01b03169063b6b55f2590602401602060405180830381600087803b1580156105f557600080fd5b505af1158015610609573d6000803e3d6000fd5b505050506040513d601f19601f8201168201806040525081019061062d91906106ff565b60408051608081018252938452602080850195865284820192835260006060860181815233825260049092529190912093518455935160018401555160028301555090516003909101805460ff1916911515919091179055565b801515811461069557600080fd5b50565b600080604083850312156106ab57600080fd5b82356001600160a01b03811681146106c257600080fd5b915060208301356106d281610687565b809150509250929050565b600080604083850312156106f057600080fd5b50508035926020909101359150565b60006020828403121561071157600080fd5b5051919050565b60006020828403121561072a57600080fd5b815161073581610687565b9392505050565b60008282101561075c57634e487b7160e01b600052601160045260246000fd5b50039056fea26469706673582212203a7775059e3c2bf316300c259ffeb084edf6ab13d5095aef28becfff9414cd1b64736f6c63430008090033",
  "linkReferences": {},
  "deployedLinkReferences": {}
}